:100000000C942A000C94000B0C9447000C944700AD
:100010000C9447000C9447000C9454080C94FA0775
:100020000C9427080C94CD070C94FE090C94D1096C
:100030000C9447000C9447000C9447000C94470024
:100040000C94610E0C9447000C9447000C944700EC
:100050000C94470011241FBECFE5D8E0DEBFCDBF12
:1000600010E0A0E6B0E0EEECF7E402C005900D92DF
:10007000AA3EB107D9F710E0AAEEB0E001C01D9288
:10008000AF3FB107E1F70E94721F0C94E5230C9477
:100090000000EF92FF920F931F937B018C0120E0F1
:1000A00030E040E05FE40E94490388238CF0C801FF
:1000B000B70120E030E040E05FE40E94C1010E940F
:1000C000A9039B01AC01205030404040504806C07D
:1000D000C801B7010E94A9039B01AC01B901CA0183
:1000E0001F910F91FF90EF900895A0E0B0E0EBE733
:1000F000F0E00C94AE23DC012B01FA019C919230CC
:1001000008F439C1EB018881823008F433C194309E
:1001100069F4843009F02FC111969C91119789815F
:10012000981709F428C1A6E9B0E025C1843009F484
:1001300021C18230A9F4923009F01DC19A01AD01AC
:1001400088E0EA010990AE01E90109929E0181501F
:10015000C1F7E201898111969C918923818308C1AD
:10016000923009F407C112962D903C901397EB0141
:100170008A819B811496AD90BD90CD90DC901797AD
:10018000EC80FD800E811F819101281B390BB90184
:1001900037FF04C066277727621B730B6032710537
:1001A0000CF061C0121613066CF537014801062EDB
:1001B00004C096948794779467940A94D2F721E0C8
:1001C00030E040E050E004C0220F331F441F551FB1
:1001D0006A95D2F721503040404050402E213F21B7
:1001E00040235123211531054105510521F021E01E
:1001F00030E040E050E079018A01E628F72808293C
:1002000019293CC0232BD1F1260E371E350146019A
:10021000062E04C096948794779467940A94D2F734
:1002200021E030E040E050E004C0220F331F441FC3
:10023000551F6A95D2F721503040404050402A2146
:100240003B214C215D21211531054105510521F04E
:1002500021E030E040E050E059016A01A628B728CB
:10026000C828D9280BC0821593052CF01C01AA249C
:10027000BB24650103C0EE24FF24870111969C91E5
:10028000D20111968C91981709F445C0992339F041
:10029000A80197012A193B094C095D0906C0A6016E
:1002A00095012E193F09400B510B57FD08C01182D3
:1002B0003382228224833583468357831DC081E0A5
:1002C00081833382228288279927DC01821B930B4A
:1002D000A40BB50B84839583A683B7830DC0220F2F
:1002E000331F441F551F24833583468357838281E0
:1002F000938101979383828324813581468157813D
:10030000DA01C9010197A109B1098F5F9F4FAF4F72
:10031000BF4328F30BC0918333822282EA0CFB1C7B
:100320000C1D1D1DE482F5820683178383E0808304
:10033000248135814681578157FF1AC0C901AA27F8
:1003400097FDA095BA2F81709070A070B0705695EF
:10035000479537952795822B932BA42BB52B848318
:100360009583A683B7838281938101969383828349
:10037000DF0101C0D201CD01CDB7DEB7E2E10C94BF
:10038000CA23A0E2B0E0E7ECF1E00C94BA23698361
:100390007A838B839C832D833E834F835887E9E048
:1003A000EE2EF12CEC0EFD1ECE010196B7010E943F
:1003B000D2048E010F5E1F4FCE010596B8010E9438
:1003C000D2048A8991E089278A8BC701B801AE01DE
:1003D000475E5F4F0E9475000E94FD03A096E6E015
:1003E0000C94D623A0E2B0E0E8EFF1E00C94BA233D
:1003F00069837A838B839C832D833E834F835887C5
:10040000F9E0EF2EF12CEC0EFD1ECE010196B701A6
:100410000E94D2048E010F5E1F4FCE010596B801D7
:100420000E94D204C701B801AE01475E5F4F0E942F
:1004300075000E94FD03A096E6E00C94D623A0E28E
:10044000B0E0E5E2F2E00C94AE2369837A838B831B
:100450009C832D833E834F835887CE010196BE0136
:10046000675F7F4F0E94D204CE010596BE016F5E8A
:100470007F4F0E94D2049985923088F0898982301A
:10048000C8F0943019F4823051F404C0843029F457
:10049000923081F486E990E0C6C0923049F420E0C1
:1004A0009A858A89981321E02A87CE010996BBC0D4
:1004B000823049F420E09A858A89981321E02A8BBA
:1004C000CE014196B0C02D843E844F8458886D88FB
:1004D0007E888F88988CEE24FF248701AA24BB2471
:1004E000650140E050E060E070E0E0E0F0E0C10174
:1004F00081709070892BE9F0E60CF71C081D191D1E
:100500009A01AB012A0D3B1D4C1D5D1D80E090E062
:10051000A0E0B0E0E614F7040805190520F481E036
:1005200090E0A0E0B0E0BA01A901480F591F6A1F8E
:100530007B1FAA0CBB1CCC1CDD1C97FE08C081E0F5
:1005400090E0A0E0B0E0A82AB92ACA2ADB2A3196B6
:10055000E032F10549F0660C771C881C991C569412
:10056000479437942794C3CFFA85EA892B893C892D
:100570008B859C85280F391F2E5F3F4F17C0CA01FE
:1005800081709070892B61F016950795F794E79428
:1005900080E090E0A0E0B0E8E82AF92A0A2B1B2BC3
:1005A00076956795579547952F5F3F4F77FDE7CF36
:1005B0000CC0440F551F661F771F17FD4160EE0CDE
:1005C000FF1C001F111F21503040403090E05907A0
:1005D00090E0690790E4790760F32B8F3C8FDB0193
:1005E000CA018F779070A070B07080349105A1051A
:1005F000B10561F447FD0AC0E114F10401051105DC
:1006000029F0405C5F4F6F4F7F4F40781A8EFE1786
:1006100011F081E08A8F4D8F5E8F6F8F78A383E01A
:10062000898FCE0149960E94FD03A096E2E10C94C9
:10063000CA23A8E1B0E0EFE1F3E00C94BA236983A8
:100640007A838B839C832D833E834F83588789E0F5
:10065000E82EF12CEC0EFD1ECE010196B7010E9492
:10066000D2048E010F5E1F4FCE010596B8010E9485
:10067000D2048985823040F08989823028F0C70110
:10068000B8010E944A0501C08FEF6896E6E00C941D
:10069000D623A8E1B0E0EFE4F3E00C94BA23698339
:1006A0007A838B839C832D833E834F83588789E095
:1006B000E82EF12CEC0EFD1ECE010196B7010E9432
:1006C000D2048E010F5E1F4FCE010596B8010E9425
:1006D000D2048985823040F08989823028F0C701B0
:1006E000B8010E944A0501C08FEF6896E6E00C94BD
:1006F000D623A8E1B0E0EFE7F3E00C94BA236983D6
:100700007A838B839C832D833E834F83588789E034
:10071000E82EF12CEC0EFD1ECE010196B7010E94D1
:10072000D2048E010F5E1F4FCE010596B8010E94C4
:10073000D2048985823040F08989823028F0C7014F
:10074000B8010E944A0501C081E06896E6E00C9479
:10075000D623ACE0B0E0EFEAF3E00C94BE2369836B
:100760007A838B839C83CE010196BE016B5F7F4FA2
:100770000E94D2048D81823061F1823050F1843048
:1007800021F48E81882351F12EC02F81388537FDC9
:1007900020C06E812F3131051CF06623F9F023C093
:1007A0008EE190E0821B930B29853A854B855C8511
:1007B00004C056954795379527958A95D2F76623B5
:1007C000B1F050954095309521953F4F4F4F5F4F79
:1007D0000EC020E030E040E050E009C02FEF3FEFD6
:1007E0004FEF5FE704C020E030E040E050E8B9019F
:1007F000CA012C96E2E00C94DA23DF92EF92FF928A
:100800000F931F93FC01E480F58006811781D1804E
:100810008081823048F480E090E0A0E1B0E0E82AF6
:10082000F92A0A2B1B2BA5C0843009F49FC0823003
:1008300021F4EE24FF24870105C0E114F104010531
:10084000110519F4E0E0F0E096C0628173819FEF3A
:10085000623879070CF05BC022E83FEF261B370BAC
:100860002A3131052CF020E030E040E050E02AC091
:10087000B801A701022E04C0769567955795479554
:100880000A94D2F781E090E0A0E0B0E004C0880FC5
:10089000991FAA1FBB1F2A95D2F70197A109B10979
:1008A0008E219F21A023B1230097A105B10521F03E
:1008B00081E090E0A0E0B0E09A01AB01282B392B59
:1008C0004A2B5B2BDA01C9018F779070A070B07052
:1008D00080349105A105B10539F427FF09C0205CDA
:1008E0003F4F4F4F5F4F04C0215C3F4F4F4F5F4F13
:1008F000E0E0F0E02030A0E03A07A0E04A07A0E402
:100900005A0710F0E1E0F0E079018A0127C0603871
:10091000710564F5FB01E158FF4FD801C7018F77DE
:100920009070A070B07080349105A105B10539F4C4
:10093000E7FE0DC080E490E0A0E0B0E004C08FE3EB
:1009400090E0A0E0B0E0E80EF91E0A1F1B1F17FFA1
:1009500005C016950795F794E794319687E01695AC
:100960000795F794E7948A95D1F705C0EE24FF2404
:100970008701EFEFF0E06E2F679566276795902F60
:100980009F77D794DD24D7948E2F8695492F462BB9
:10099000582F5D29B701CA011F910F91FF90EF9069
:1009A000DF900895FC01DB01408151812281622F9B
:1009B0006F7770E0221F2227221F9381892F880FD3
:1009C000822B282F30E0991F9927991F11969C930D
:1009D000119721153105A9F54115510561057105DD
:1009E00011F482E037C082E89FEF13969C938E93B8
:1009F00012979A01AB0167E0220F331F441F551F66
:100A00006A95D1F783E08C930DC0220F331F441FEA
:100A1000551F12968D919C911397019713969C9355
:100A20008E931297203080E0380780E0480780E4FA
:100A3000580758F314962D933D934D935C93179755
:100A400008952F3F310579F4411551056105710570
:100A500019F484E08C93089564FF03C081E08C93C3
:100A600012C01C9210C02F57304013963C932E9307
:100A7000129783E08C9387E0440F551F661F771F02
:100A80008A95D1F7706414964D935D936D937C9322
:100A9000179708951F93DC01FB019C91923008F495
:100AA00047C08081823008F443C0943051F41196DD
:100AB0001C91843099F58181682F70E0611B710968
:100AC0003FC0843021F0923031F48230B9F181811D
:100AD000882389F12DC011961C9111978230F1F075
:100AE00081811817D9F412962D913C911397828128
:100AF00093818217930794F028173907BCF0149656
:100B00008D919D910D90BC91A02D248135814681C0
:100B10005781281739074A075B0718F4112341F05A
:100B20000AC082179307A407B50740F4112319F0F0
:100B300061E070E005C06FEF7FEF02C060E070E041
:100B4000CB011F910895DF93CF93CDB7DEB7A1E41A
:100B5000B0E0E1E4F0E0808188608C93CF91DF9198
:100B60000895DF93CF93CDB7DEB7A1E4B0E0E1E421
:100B7000F0E0808188618C93E1E4F0E01082CF9115
:100B8000DF910895DF93CF930F92CDB7DEB78983BE
:100B9000A1E4B0E0E1E4F0E08081887F8C93A1E4FF
:100BA000B0E0E1E4F0E090818981892B8C930F9093
:100BB000CF91DF910895DF93CF93CDB7DEB7AFE448
:100BC000B0E0EFE4F0E080818E7F8C93AFE4B0E0A2
:100BD000EFE4F0E0808182608C93AEE4B0E0EEE47C
:100BE000F0E0808188608C93AEE4B0E0EEE4F0E069
:100BF000808180618C93AFE4B0E0EFE4F0E080812D
:100C00008F7B8C93AFE4B0E0EFE4F0E0808180680C
:100C10008C93AFE4B0E0EFE4F0E080818F7E8C93C2
:100C2000AFE4B0E0EFE4F0E0808180628C93AEE46A
:100C3000B0E0EEE4F0E08081887F8C93A9E5B0E03D
:100C4000E9E5F0E080818B7F8C93A9E5B0E0E9E5F0
:100C5000F0E08081877F8C93A9E5B0E0E9E5F0E0E2
:100C600080818F7E8C93A9E5B0E0E9E5F0E080819A
:100C70008F7D8C93A8E5B0E0E8E5F0E080818460AA
:100C80008C93A8E5B0E0E8E5F0E0808188608C9383
:100C9000A8E5B0E0E8E5F0E0808180618C93A8E50C
:100CA000B0E0E8E5F0E0808180628C93EAE4F0E077
:100CB0001082EBE4F0E01082E8E4F0E01082E9E476
:100CC000F0E01082ECE4F0E01082EDE4F0E010825D
:100CD000E6E4F0E01082E7E4F0E01082CF91DF91EB
:100CE0000895DF93CF930F92CDB7DEB78983AEE43B
:100CF000B0E0EEE4F0E08081887F8C93AEE4B0E079
:100D0000EEE4F0E08081982F89818770892B8C93A5
:100D10000F90CF91DF910895DF93CF93CDB7DEB7DA
:100D2000AEE4B0E0EEE4F0E08081887F8C93CF9178
:100D3000DF910895DF93CF93CDB7DEB7A9E5B0E09B
:100D4000E9E5F0E0808184608C93CF91DF91089594
:100D5000DF93CF93CDB7DEB7A9E5B0E0E9E5F0E0EA
:100D600080818B7F8C93CF91DF910895DF93CF9318
:100D7000CDB7DEB7A9E5B0E0E9E5F0E080818061BC
:100D80008C93CF91DF910895DF93CF93CDB7DEB7EA
:100D9000A9E5B0E0E9E5F0E080818F7E8C93CF910A
:100DA000DF910895DF93CF93CDB7DEB7A9E5B0E02B
:100DB000E9E5F0E0808188608C93CF91DF91089520
:100DC000DF93CF93CDB7DEB7A9E5B0E0E9E5F0E07A
:100DD0008081877F8C93CF91DF910895DF93CF93AC
:100DE000CDB7DEB7A9E5B0E0E9E5F0E0808180624B
:100DF0008C93CF91DF910895DF93CF93CDB7DEB77A
:100E0000A9E5B0E0E9E5F0E080818F7D8C93CF919A
:100E1000DF910895DF93CF9300D0CDB7DEB79A83EB
:100E2000898389819A819093F4008093F3000F90D5
:100E30000F90CF91DF910895DF93CF9300D0CDB77E
:100E4000DEB79A83898389819A819093F600809393
:100E5000F5000F900F90CF91DF910895DF93CF931E
:100E600000D0CDB7DEB79A83898389819A81909328
:100E7000F0008093EF000F900F90CF91DF910895D5
:100E8000DF93CF9300D0CDB7DEB79A838983898172
:100E90009A819093F2008093F1000F900F90CF9180
:100EA000DF910895DF93CF9300D0CDB7DEB79A835B
:100EB0008983ECE4F0E089818083EDE4F0E08981CE
:100EC0009A81892F992780830F900F90CF91DF917E
:100ED0000895DF93CF9300D0CDB7DEB79A8389838F
:100EE000EAE4F0E089818083EBE4F0E089819A8193
:100EF000892F992780830F900F90CF91DF910895CC
:100F0000DF93CF9300D0CDB7DEB79A838983E8E42F
:100F1000F0E089818083E9E4F0E089819A81892F7A
:100F2000992780830F900F90CF91DF910895DF93E1
:100F3000CF9300D0CDB7DEB79A838983E6E4F0E0A3
:100F400089819A81918380830F900F90CF91DF9157
:100F50000895DF93CF9300D0CDB7DEB7EDE4F0E096
:100F60008081882F90E09A83898389819A81982F44
:100F700088279A838983ECE4F0E08081282F30E091
:100F800089819A81822B932B9A83898389819A8183
:100F90000F900F90CF91DF9108951F920F920FB68F
:100FA0000F9211242F933F934F935F936F937F93EF
:100FB0008F939F93AF93BF93EF93FF93DF93CF9361
:100FC000CDB7DEB7E091F300F091F4000995CF9131
:100FD000DF91FF91EF91BF91AF919F918F917F91A1
:100FE0006F915F914F913F912F910F900FBE0F9096
:100FF0001F9018951F920F920FB60F9211242F93E6
:101000003F934F935F936F937F938F939F93AF9390
:10101000BF93EF93FF93DF93CF93CDB7DEB7E0910C
:10102000F500F091F6000995CF91DF91FF91EF91D6
:10103000BF91AF919F918F917F916F915F914F91F0
:101040003F912F910F900FBE0F901F9018951F92F8
:101050000F920FB60F9211242F933F934F935F93EC
:101060006F937F938F939F93AF93BF93EF93FF9370
:10107000DF93CF93CDB7DEB7E091EF00F091F000B2
:101080000995CF91DF91FF91EF91BF91AF919F9122
:101090008F917F916F915F914F913F912F910F9021
:1010A0000FBE0F901F9018951F920F920FB60F92C0
:1010B00011242F933F934F935F936F937F938F935D
:1010C0009F93AF93BF93EF93FF93DF93CF93CDB7EE
:1010D000DEB7E091F100F091F2000995CF91DF9138
:1010E000FF91EF91BF91AF919F918F917F916F9100
:1010F0005F914F913F912F910F900FBE0F901F90D6
:101100001895DF93CF93CDB7DEB7E6E4F0E08081AA
:101110009181CF91DF910895DF93CF93CDB7DEB763
:10112000AEE4B0E0EEE4F0E0808180648C93CF9197
:10113000DF910895DF93CF93CDB7DEB7AEE4B0E093
:10114000EEE4F0E080818F7B8C93CF91DF91089566
:10115000DF93CF93CDB7DEB7A3E5B0E0E3E5F0E0F2
:10116000808180648C93A3E5B0E0E3E5F0E08081CA
:1011700088608C93A3E5B0E0E3E5F0E080818F7EAA
:101180008C93A3E5B0E0E3E5F0E0808180628C938E
:10119000CF91DF910895DF93CF930F92CDB7DEB754
:1011A0008983A3E5B0E0E3E5F0E08081887F8C935C
:1011B000A3E5B0E0E3E5F0E08081982F89818770B6
:1011C000892B8C930F90CF91DF910895DF93CF936C
:1011D000CDB7DEB7A3E5B0E0E3E5F0E08081887F3E
:1011E0008C93CF91DF910895DF93CF93CDB7DEB786
:1011F000A9E5B0E0E9E5F0E0808181608C93CF91D2
:10120000DF910895DF93CF93CDB7DEB7A9E5B0E0C6
:10121000E9E5F0E080818E7F8C93CF91DF91089596
:10122000DF93CF93CDB7DEB7A9E5B0E0E9E5F0E015
:10123000808182608C93CF91DF910895DF93CF936B
:10124000CDB7DEB7A9E5B0E0E9E5F0E080818D7FBC
:101250008C93CF91DF910895DF93CF9300D0CDB7DA
:10126000DEB79A83898389819A819093F80080936D
:10127000F7000F900F90CF91DF910895DF93CF93F8
:1012800000D0CDB7DEB79A83898389819A81909304
:10129000FA008093F9000F900F90CF91DF9108959D
:1012A000DF93CF930F92CDB7DEB78983E2E5F0E00D
:1012B000898180830F90CF91DF910895DF93CF9341
:1012C0000F92CDB7DEB78983ECE5F0E089818083AA
:1012D0000F90CF91DF910895DF93CF93CDB7DEB715
:1012E000E2E5F0E08081CF91DF910895DF93CF9325
:1012F000CDB7DEB7ECE5F0E08081CF91DF910895C6
:10130000DF93CF930F92CDB7DEB789838981813088
:1013100079F4A3E5B0E0E3E5F0E080818F7B8C9386
:10132000A3E5B0E0E3E5F0E08081877F8C9335C0F2
:101330008981823079F4A3E5B0E0E3E5F0E08081D3
:101340008F7B8C93A3E5B0E0E3E5F0E080818860DB
:101350008C9323C08981833079F4A3E5B0E0E3E581
:10136000F0E0808180648C93A3E5B0E0E3E5F0E0F9
:10137000808188608C9311C08981843071F4A3E5E9
:10138000B0E0E3E5F0E0808180648C93A3E5B0E019
:10139000E3E5F0E08081877F8C930F90CF91DF9120
:1013A00008951F920F920FB60F9211242F933F931F
:1013B0004F935F936F937F938F939F93AF93BF935D
:1013C000EF93FF93DF93CF93CDB7DEB7E091F700B4
:1013D000F091F8000995CF91DF91FF91EF91BF91C6
:1013E000AF919F918F917F916F915F914F913F91BD
:1013F0002F910F900FBE0F901F9018951F920F9274
:101400000FB60F9211242F933F934F935F936F93D7
:101410007F938F939F93AF93BF93EF93FF93DF934C
:10142000CF93CDB7DEB7E091F900F091FA000995BE
:10143000CF91DF91FF91EF91BF91AF919F918F91EC
:101440007F916F915F914F913F912F910F900FBEC0
:101450000F901F901895DF93CF93CDB7DEB7AFE510
:10146000B0E0EFE5F0E0808180688C93CF91DF9170
:101470000895DF93CF93CDB7DEB7AFE5B0E0EFE5EA
:10148000F0E080818F778C93CF91DF910895DF9387
:10149000CF93CDB7DEB7ABE5B0E0EBE5F0E0808110
:1014A00080648C93CF91DF910895DF93CF93CDB774
:1014B000DEB7ABE5B0E0EBE5F0E080818F7B8C93AD
:1014C000CF91DF910895DF93CF93CDB7DEB7A5E538
:1014D000B0E0E5E5F0E080818E7F8C93A5E5B0E09B
:1014E000E5E5F0E0808182608C93CF91DF910895F3
:1014F000DF93CF9300D00F92CDB7DEB78983898178
:10150000282F30E03B832A838A819B81813091059B
:1015100021F12A813B81223031052CF48A819B8183
:10152000009761F047C02A813B812230310521F1CB
:101530008A819B818330910571F13CC0A5E5B0E0C3
:10154000E5E5F0E080818E7F8C93A5E5B0E0E5E5F0
:10155000F0E080818D7F8C933BC0A5E5B0E0E5E5B0
:10156000F0E0808181608C93A5E5B0E0E5E5F0E0F6
:1015700080818D7F8C932CC0A5E5B0E0E5E5F0E09F
:1015800080818E7F8C93A5E5B0E0E5E5F0E0808179
:1015900082608C931DC0A5E5B0E0E5E5F0E08081B8
:1015A00081608C93A5E5B0E0E5E5F0E080818260A4
:1015B0008C930EC0A5E5B0E0E5E5F0E080818E7F7C
:1015C0008C93A5E5B0E0E5E5F0E0808182608C9346
:1015D0000F900F900F90CF91DF910895DF93CF93ED
:1015E00000D0CDB7DEB79A83898389819A819093A1
:1015F000FC008093FB000F900F90CF91DF91089536
:101600001F920F920FB60F9211242F933F934F9377
:101610005F936F937F938F939F93AF93BF93EF935A
:10162000FF93DF93CF93CDB7DEB7E091FB00F0914E
:10163000FC000995CF91DF91FF91EF91BF91AF91A0
:101640009F918F917F916F915F914F913F912F91DA
:101650000F900FBE0F901F901895DF93CF93CDB7CB
:10166000DEB7EAE3F0E08FEF8083E7E3F0E08FEFAF
:101670008083E4E3F0E08FEF8083E1E3F0E080EF4C
:101680008083CF91DF910895DF93CF93CDB7DEB7FD
:101690002B970FB6F894DEBF0FBECDBF8A836B8346
:1016A00019828A818830D0F58B81282F30E03B87E2
:1016B0002A878A859B850097C9F02A853B8521303A
:1016C000310549F5ABE3B0E0EBE3F0E08081482F72
:1016D0008A81282F30E081E090E0022E02C0880F3E
:1016E000991F0A94E2F7842B8C93F2C0ABE3B0E02D
:1016F000EBE3F0E08081482F8A81282F30E081E001
:1017000090E0022E02C0880F991F0A94E2F780959C
:1017100084238C93DDC082E08983DAC08A8188309B
:1017200008F444C08A81803108F040C08B81282FA2
:1017300030E039872887888599850097E1F02885EA
:1017400039852130310579F5A8E3B0E0E8E3F0E030
:101750008081482F8A81882F90E09C01277030700B
:1017600081E090E0022E02C0880F991F0A94E2F7F0
:10177000842B8C93ADC0A8E3B0E0E8E3F0E0808177
:10178000482F8A81882F90E09C012770307081E07B
:1017900090E0022E02C0880F991F0A94E2F780950C
:1017A00084238C9395C082E0898392C08A818031A2
:1017B00008F444C08A81883108F040C08B81282F0A
:1017C00030E03F832E838E819F810097E1F02E8150
:1017D0003F812130310579F5A5E3B0E0E5E3F0E0A4
:1017E0008081482F8A81882F90E09C01277030707B
:1017F00081E090E0022E02C0880F991F0A94E2F760
:10180000842B8C9365C0A5E3B0E0E5E3F0E0808134
:10181000482F8A81882F90E09C012770307081E0EA
:1018200090E0022E02C0880F991F0A94E2F780957B
:1018300084238C934DC082E089834AC08A81883199
:1018400008F444C08A81803208F040C08B81282F80
:1018500030E03D832C838C819D810097E1F02C81C9
:101860003D812130310579F5A2E3B0E0E2E3F0E01B
:101870008081482F8A81882F90E09C0127703070EA
:1018800081E090E0022E02C0880F991F0A94E2F7CF
:10189000842B8C931DC0A2E3B0E0E2E3F0E08081F2
:1018A000482F8A81882F90E09C012770307081E05A
:1018B00090E0022E02C0880F991F0A94E2F78095EB
:1018C00084238C9305C082E0898302C082E08983EF
:1018D00089812B960FB6F894DEBF0FBECDBFCF9196
:1018E000DF910895DF93CF9300D000D0CDB7DEB75E
:1018F0008A837C836B8319828B819C81009709F496
:101900006EC08A818830A0F4E9E3F0E08081282F5E
:1019100030E08A81882F90E0A90102C05595479553
:101920008A95E2F7CA018170EB81FC81808359C0FE
:101930008A818830C8F08A818031B0F4E6E3F0E033
:101940008081282F30E08A81882F90E08770907006
:10195000A90102C0559547958A95E2F7CA018170A1
:10196000EB81FC8180833DC08A818031C8F08A810F
:101970008831B0F4E3E3F0E08081282F30E08A8101
:10198000882F90E087709070A90102C05595479507
:101990008A95E2F7CA018170EB81FC81808321C0C6
:1019A0008A818831C8F08A818032B0F4E0E3F0E0C7
:1019B0008081282F30E08A81882F90E08770907096
:1019C000A90102C0559547958A95E2F7CA01817031
:1019D000EB81FC81808305C082E0898302C083E0C3
:1019E000898389810F900F900F900F90CF91DF9195
:1019F0000895DF93CF93CDB7DEB727970FB6F8944E
:101A0000DEBF0FBECDBF9C838B837E836D834F83F0
:101A10001A82198219821DC08981282F30E08B819A
:101A20009C81FC01E20FF31F40818981282F30E067
:101A30008D819E81FC01E20FF31F9081842F692F1D
:101A40000E94440B8A838A81882339F489818F5FBD
:101A5000898399818F819817F8F28A8127960FB62A
:101A6000F894DEBF0FBECDBFCF91DF910895DF9315
:101A7000CF9300D0CDB7DEB789836A8389816A812D
:101A80000E94440B0F900F90CF91DF910895DF9348
:101A9000CF93CDB7DEB7A7E2B0E0E7E2F0E0808118
:101AA0008F7D8C93A7E2B0E0E7E2F0E08081806474
:101AB0008C93A7E2B0E0E7E2F0E080818F778C932F
:101AC000A6E2B0E0E6E2F0E08081887F8C93A6E2B7
:101AD000B0E0E6E2F0E0808185608C93A6E2B0E0C1
:101AE000E6E2F0E080818F7D8C93CF91DF910895C5
:101AF000DF93CF93CDB7DEB7A6E2B0E0E6E2F0E049
:101B0000808180688C93CF91DF910895DF93CF938C
:101B1000CDB7DEB7A6E2B0E0E6E2F0E080818F77F5
:101B20008C93CF91DF910895DF93CF93CDB7DEB73C
:101B3000A6E2B0E0E6E2F0E0808188608C93CF918D
:101B4000DF910895DF93CF93CDB7DEB7A6E2B0E083
:101B5000E6E2F0E08081877F8C93CF91DF9108955A
:101B6000DF93CF9300D0CDB7DEB79A838983898185
:101B70009A819093EB008093EA000F900F90CF91A1
:101B8000DF910895DF93CF930F92CDB7DEB78983AE
:101B9000A7E2B0E0E7E2F0E08081807E8C93A7E2EC
:101BA000B0E0E7E2F0E090818981892B8C93A6E296
:101BB000B0E0E6E2F0E0808180648C930F90CF91FA
:101BC000DF910895DF93CF930F92CDB7DEB789836E
:101BD0008981893010F5A6E2B0E0E6E2F0E080818C
:101BE00080628C93A0E5B0E0E0E5F0E080818F7149
:101BF0008C93A0E5B0E0E0E5F0E08081282F8981BA
:101C0000882F90E0880F991F82959295907F982752
:101C1000807F9827822B8C930AC08981893039F480
:101C2000A6E2B0E0E6E2F0E080818F7D8C930F9039
:101C3000CF91DF910895DF93CF9300D00F92CDB76E
:101C4000DEB78B831A8219828B810E94C20DE6E275
:101C5000F0E0808182958F70882F90E08170907085
:101C60000097A9F3A6E2B0E0E6E2F0E080818061AF
:101C70008C93E4E2F0E08081882F90E09A8389835E
:101C8000E5E2F0E08081882F90E0982F88279C0182
:101C900089819A81822B932B9A83898389819A8166
:101CA0000F900F900F90CF91DF910895DF93CF9316
:101CB000CDB7DEB78091FD009091FE00CF91DF910E
:101CC00008951F920F920FB60F9211242F933F93F6
:101CD0004F935F936F937F938F939F93AF93BF9334
:101CE000EF93FF93DF93CF93CDB7DEB78091EA00F8
:101CF0009091EB00009729F0E091EA00F091EB0061
:101D00000995E4E2F0E08081882F90E09093FE0056
:101D10008093FD00E5E2F0E08081882F90E0982F2D
:101D200088279C018091FD009091FE00822B932BCF
:101D30009093FE008093FD00CF91DF91FF91EF9192
:101D4000BF91AF919F918F917F916F915F914F91D3
:101D50003F912F910F900FBE0F901F901895DF931A
:101D6000CF93CDB7DEB762970FB6F894DEBF0FBE44
:101D7000CDBF8C876D871982CE0102969F878E8793
:101D8000E0EEF0E0F98BE88BFAE0FA8BE889F9896C
:101D90000080888999890196998B888BEE85FF85CB
:101DA00000828E859F8501969F878E879A899150A4
:101DB0009A8BEA89EE2351F78D858A3008F045C069
:101DC0008C85282F30E0C901880F991F880F991F33
:101DD000880F991F820F931FFC01EA55FF4F8081E6
:101DE000843171F48D85282F30E0CE010296FC01FC
:101DF000E20FF31F90818C85692F0E94310F27C05D
:101E00008C85282F30E0C901880F991F880F991FF2
:101E1000880F991F820F931FFC01EA55FF4F8081A5
:101E20008A3081F48D85282F30E0CE010296FC01A6
:101E3000E20FF31F8081982F90958C85692F0E9467
:101E4000310F05C081E0898302C082E089838981E6
:101E500062960FB6F894DEBF0FBECDBFCF91DF9173
:101E60000895DF93CF93CDB7DEB72A970FB6F894D6
:101E7000DEBF0FBECDBF89876A8719821BC08981EB
:101E8000482F50E08A85282F30E08981882F90E004
:101E9000B90102C0759567958A95E2F7CB01282FA5
:101EA0002170CE010296FC01E40FF51F2083898189
:101EB0008F5F89838981873010F38985282F30E0EF
:101EC000C901880F991F880F991F880F991F820FCA
:101ED000931F82569F4F9E012E5F3F4FB90147E0EF
:101EE0000E94F90C2A960FB6F894DEBF0FBECDBF44
:101EF000CF91DF910895DF93CF9300D0CDB7DEB7B8
:101F00008A8319828A81823008F04FC08A81282F03
:101F100030E0C901880F991F880F991F880F991FFA
:101F2000820F931FFC01EA55FF4F80818431A1F499
:101F30008A81282F30E0C901880F991F880F991FC7
:101F4000880F991F820F931FFC01EB55FF4F808173
:101F500060E00E94440B2BC08A81282F30E0C90129
:101F6000880F991F880F991F880F991F820F931F41
:101F7000FC01EA55FF4F80818A30A1F48A81282F25
:101F800030E0C901880F991F880F991F880F991F8A
:101F9000820F931FFC01EB55FF4F808161E00E948F
:101FA000440B05C081E0898302C082E08983898176
:101FB0000F900F90CF91DF910895DF93CF9300D0D2
:101FC000CDB7DEB78A8319828A81823008F04FC08C
:101FD0008A81282F30E0C901880F991F880F991F27
:101FE000880F991F820F931FFC01EA55FF4F8081D4
:101FF0008431A1F48A81282F30E0C901880F991F0C
:10200000880F991F880F991F820F931FFC01EB55B2
:10201000FF4F808161E00E94440B2BC08A81282FF2
:1020200030E0C901880F991F880F991F880F991FE9
:10203000820F931FFC01EA55FF4F80818A30A1F483
:102040008A81282F30E0C901880F991F880F991FB6
:10205000880F991F820F931FFC01EB55FF4F808162
:1020600060E00E94440B05C081E0898302C082E0E9
:10207000898389810F900F90CF91DF9108950F93FD
:102080001F93DF93CF93CDB7DEB7CE58D0400FB6B6
:10209000F894DEBF0FBECDBFFE01E357FF4F1082A5
:1020A000FE01E257FF4F10820C947318FE01E257B5
:1020B000FF4F8081282F30E0C901880F991F820FC0
:1020C000931F880F991F880F991FFC01E055FF4F40
:1020D00080818170813009F075C4FE01E757FF4FA0
:1020E00080E090E0A0EFB1E480839183A283B3838A
:1020F0008E010B571F4FFE01E757FF4F6081718123
:102100008281938120E030E04AEF54E40E941F0274
:10211000DC01CB01F80180839183A283B383FE01AC
:10212000EB57FF4F608171818281938120E030E025
:1021300040E85FE30E947903882344F4FE01ED57F1
:10214000FF4F81E090E09183808364C0FE01EB57F4
:10215000FF4F608171818281938120E03FEF4FE7E3
:1021600057E40E94190318160CF043C0FE01E7570C
:10217000FF4F608171818281938120E030E040E2F5
:1021800051E40E941F02DC01CB018E010D571F4F4D
:10219000BC01CD010E944900DC01CB01F801918313
:1021A00080831FC0FE01EF57FF4F88EC90E09183C2
:1021B0008083FE01EF57FF4F808191810197F1F7F6
:1021C000FE01EF57FF4F91838083DE01AD57BF4F74
:1021D000FE01ED57FF4F80819181019711969C93ED
:1021E0008E93FE01ED57FF4F808191810097D1F6CC
:1021F00027C08E010D571F4FFE01EB57FF4F608127
:102200007181828193810E944900DC01CB01F80138
:1022100091838083DE01A158BF4FFE01ED57FF4F30
:10222000808191818D939C93FE01E158FF4F8081C5
:1022300091810197F1F7FE01E158FF4F918380836F
:10224000FE01E257FF4F8081282F30E0C901880F3F
:10225000991F820F931F880F991F880F991FFC01E8
:10226000E055FF4F8081869586958170882F90E09C
:10227000880F991F880F991F482F4063FE01E2576E
:10228000FF4F8081282F30E0C901880F991F820FEE
:10229000931F880F991F880F991FFC01E055FF4F6E
:1022A000808186958170882F90E0880F991F880F14
:1022B000991F880F991F842BFE01E357FF4F8083DE
:1022C000FE01E257FF4FDE01A357BF4F80816C91A3
:1022D0000E948718FE01E558FF4F80E090E0A0E8DB
:1022E000BFE380839183A283B3838E0109581F4F7C
:1022F000FE01E558FF4F608171818281938120E06A
:1023000030E04AEF54E40E941F02DC01CB01F801E7
:1023100080839183A283B383FE01E958FF4F6081DC
:1023200071818281938120E030E040E85FE30E9488
:102330007903882344F4FE01EB58FF4F81E090E0DD
:102340009183808364C0FE01E958FF4F60817181F1
:102350008281938120E03FEF4FE757E40E94190309
:1023600018160CF043C0FE01E558FF4F60817181E3
:102370008281938120E030E040E251E40E941F021C
:10238000DC01CB018E010B581F4FBC01CD010E9417
:102390004900DC01CB01F801918380831FC0FE015D
:1023A000ED58FF4F88EC90E091838083FE01ED585B
:1023B000FF4F808191810197F1F7FE01ED58FF4FAA
:1023C00091838083DE01AB58BF4FFE01EB58FF4F76
:1023D00080819181019711969C938E93FE01EB5819
:1023E000FF4F808191810097D1F627C08E010B5855
:1023F0001F4FFE01E958FF4F6081718182819381F7
:102400000E944900DC01CB01F80191838083DE0149
:10241000AF58BF4FFE01EB58FF4F808191818D93E4
:102420009C93FE01EF58FF4F808191810197F1F756
:10243000FE01EF58FF4F91838083FE01E257FF4F6B
:102440008081282F30E0C901880F991F820F931FC8
:10245000880F991F880F991FFC01E055FF4F80815D
:1024600082958695869583708170882F90E0880F7D
:10247000991F880F991F482F4860FE01E257FF4FB0
:102480008081282F30E0C901880F991F820F931F88
:10249000880F991F880F991FFC01E055FF4F80811D
:1024A0008695869586958170882F90E0880F991F74
:1024B000482BFE01E257FF4F8081282F30E0C901F1
:1024C000880F991F820F931F880F991F880F991FDC
:1024D000FC01E055FF4F808182958F708170842BC5
:1024E000FE01E357FF4F8083FE01E257FF4FDE01FD
:1024F000A357BF4F80816C910E948718FE01E3595A
:10250000FF4F80E090E0A0E8BFE380839183A28347
:10251000B3838E0107591F4FFE01E359FF4F6081BE
:1025200071818281938120E030E04AEF54E40E947F
:102530001F02DC01CB01F80180839183A283B38366
:10254000FE01E759FF4F608171818281938120E014
:1025500030E040E85FE30E947903882344F4FE0101
:10256000E959FF4F81E090E09183808364C0FE01D0
:10257000E759FF4F608171818281938120E03FEFB5
:102580004FE757E40E94190318160CF043C0FE01F0
:10259000E359FF4F608171818281938120E030E0B7
:1025A00040E251E40E941F02DC01CB018E01095977
:1025B0001F4FBC01CD010E944900DC01CB01F80195
:1025C000918380831FC0FE01EB59FF4F88EC90E0A0
:1025D00091838083FE01EB59FF4F808191810197A8
:1025E000F1F7FE01EB59FF4F91838083DE01A9597A
:1025F000BF4FFE01E959FF4F8081918101971196EC
:102600009C938E93FE01E959FF4F80819181009741
:10261000D1F627C08E0109591F4FFE01E759FF4F20
:1026200060817181828193810E944900DC01CB012C
:10263000F80191838083DE01AD59BF4FFE01E95956
:10264000FF4F808191818D939C93FE01ED59FF4F47
:10265000808191810197F1F7FE01ED59FF4F918340
:102660008083FE01E257FF4F808161E00E9487185E
:10267000FE01E15AFF4F80E090E0A0E4B0E48083E7
:102680009183A283B3838E01055A1F4FFE01E15A45
:10269000FF4F608171818281938120E030E04AEFB9
:1026A00054E40E941F02DC01CB01F8018083918376
:1026B000A283B383FE01E55AFF4F6081718182815D
:1026C000938120E030E040E85FE30E9479038823B3
:1026D00044F4FE01E75AFF4F81E090E0918380834C
:1026E00064C0FE01E55AFF4F608171818281938150
:1026F00020E03FEF4FE757E40E94190318160CF053
:1027000043C0FE01E15AFF4F608171818281938154
:1027100020E030E040E251E40E941F02DC01CB01E6
:102720008E01075A1F4FBC01CD010E944900DC01F8
:10273000CB01F801918380831FC0FE01E95AFF4F4E
:1027400088EC90E091838083FE01E95AFF4F8081FD
:1027500091810197F1F7FE01E95AFF4F9183808340
:10276000DE01A75ABF4FFE01E75AFF4F80819181DA
:10277000019711969C938E93FE01E75AFF4F80813B
:1027800091810097D1F627C08E01075A1F4FFE0195
:10279000E55AFF4F60817181828193810E944900D7
:1027A000DC01CB01F80191838083DE01AB5ABF4F7E
:1027B000FE01E75AFF4F808191818D939C93FE012A
:1027C000EB5AFF4F808191810197F1F7FE01EB5A9F
:1027D000FF4F91838083FE01E257FF4F8081282FB6
:1027E00030E0C901880F991F820F931F880F991F2E
:1027F000880F991FFC01E055FF4F8081881F8827B3
:10280000881F882F90E0880F991F482F4460FE0191
:10281000E257FF4F8081282F30E0C901880F991FB0
:10282000820F931F880F991F880F991FFC01E05595
:10283000FF4F80818295869587708170842BFE0181
:10284000E357FF4F8083FE01E257FF4FDE01A3579E
:10285000BF4F80816C910E948718FE01EF5AFF4F95
:1028600080E090E0A0E4B0E480839183A283B3830E
:102870008E01035B1F4FFE01EF5AFF4F6081718194
:102880008281938120E030E04AEF54E40E941F02ED
:10289000DC01CB01F80180839183A283B383FE0125
:1028A000E35BFF4F608171818281938120E030E0A2
:1028B00040E85FE30E947903882344F4FE01E55B6E
:1028C000FF4F81E090E09183808364C0FE01E35B71
:1028D000FF4F608171818281938120E03FEF4FE75C
:1028E00057E40E94190318160CF043C0FE01EF5A7A
:1028F000FF4F608171818281938120E030E040E26E
:1029000051E40E941F02DC01CB018E01055B1F4FC9
:10291000BC01CD010E944900DC01CB01F80191838B
:1029200080831FC0FE01E75BFF4F88EC90E091833E
:102930008083FE01E75BFF4F808191810197F1F772
:10294000FE01E75BFF4F91838083DE01A55BBF4FF4
:10295000FE01E55BFF4F80819181019711969C9369
:102960008E93FE01E55BFF4F808191810097D1F648
:10297000B1C38E01055B1F4FFE01E35BFF4F60811A
:102980007181828193810E944900DC01CB01F801B1
:1029900091838083DE01A95BBF4FFE01E55BFF4FA2
:1029A0008081918111969C938E93FE01E95BFF4F8C
:1029B000808191810197F1F7FE01E95BFF4F9183DF
:1029C000808388C3FE01ED5BFF4F80E090E0A0EFC5
:1029D000B1E480839183A283B3838E01015C1F4F96
:1029E000FE01ED5BFF4F608171818281938120E068
:1029F00030E04AEF54E40E941F02DC01CB01F801F1
:102A000080839183A283B383FE01FF9660817181ED
:102A10008281938120E030E040E85FE30E94790307
:102A200088232CF481E090E09EAF8DAF46C0FE017C
:102A3000FF96608171818281938120E03FEF4FE7B3
:102A400057E40E941903181664F5FE01ED5BFF4F71
:102A5000608171818281938120E030E040E251E425
:102A60000E941F02DC01CB01BC01CD010E94490084
:102A7000DC01CB019EAF8DAF0FC088EC90E09CAF26
:102A80008BAF8BAD9CAD0197F1F79CAF8BAF8DAD4C
:102A90009EAD01979EAF8DAF8DAD9EAD009769F74E
:102AA00016C0FE01FF9660817181828193810E9430
:102AB0004900DC01CB019EAF8DAF8DAD9EAD9AAFCD
:102AC00089AF89AD9AAD0197F1F79AAF89AFFE0151
:102AD000E257FF4F808160E20E948718FE01E257B3
:102AE000FF4F808160E20E948718FE01E257FF4F8E
:102AF0008081282F30E0C901880F991F820F931F12
:102B0000880F991F880F991FFC01E055FF4F8081A6
:102B100086958170882F90E09695982F88279795B5
:102B20008795482FFE01E257FF4F8081282F30E024
:102B3000C901880F991F820F931F880F991F880F53
:102B4000991FFC01E055FF4F808186958695817025
:102B5000882F90E000249695879507949695879501
:102B60000794982F802D842BFE01E357FF4F80831D
:102B7000FE01E257FF4FDE01A357BF4F80816C91EA
:102B80000E94871880E090E0A0E8BFE38DAB9EAB89
:102B9000AFABB8AF6DA97EA98FA998AD20E030E0AA
:102BA0004AEF54E40E941F02DC01CB0189AB9AABCF
:102BB000ABABBCAB69A97AA98BA99CA920E030E09A
:102BC00040E85FE30E94790388232CF481E090E0E1
:102BD00098AB8FA73FC069A97AA98BA99CA920E0CF
:102BE0003FEF4FE757E40E94190318164CF56DA903
:102BF0007EA98FA998AD20E030E040E251E40E9428
:102C00001F02DC01CB01BC01CD010E944900DC01A7
:102C1000CB0198AB8FA70FC088EC90E09EA78DA743
:102C20008DA59EA50197F1F79EA78DA78FA598A9C1
:102C3000019798AB8FA78FA598A9009769F714C043
:102C400069A97AA98BA99CA90E944900DC01CB0142
:102C500098AB8FA78FA598A99CA78BA78BA59CA5A0
:102C60000197F1F79CA78BA7FE01E257FF4F8081E8
:102C700060E00E948718FE01E257FF4F8081282FF5
:102C800030E0C901880F991F820F931F880F991F89
:102C9000880F991FFC01E055FF4F80818295869532
:102CA000869583708170882F90E000249695879593
:102CB0000794969587950794982F802D482F406804
:102CC000FE01E257FF4F8081282F30E0C901880FB5
:102CD000991F820F931F880F991F880F991FFC015E
:102CE000E055FF4F80818695869586958170882F67
:102CF00090E0880F991F82959295907F9827807F0A
:102D00009827482BFE01E257FF4F8081282F30E0A3
:102D1000C901880F991F820F931F880F991F880F71
:102D2000991FFC01E055FF4F808182958F70817063
:102D3000882F90E082959295907F9827807F9827A2
:102D4000842BFE01E357FF4F8083FE01E257FF4FC4
:102D5000DE01A357BF4F80816C910E94871880E0ED
:102D600090E0A0E8BFE38FA398A7A9A7BAA76FA197
:102D700078A589A59AA520E030E04AEF54E40E94A6
:102D80001F02DC01CB018BA39CA3ADA3BEA36BA14F
:102D90007CA18DA19EA120E030E040E85FE30E948D
:102DA000790388232CF481E090E09AA389A33FC0A3
:102DB0006BA17CA18DA19EA120E03FEF4FE757E4DE
:102DC0000E94190318164CF56FA178A589A59AA53C
:102DD00020E030E040E251E40E941F02DC01CB0120
:102DE000BC01CD010E944900DC01CB019AA389A35B
:102DF0000FC088EC90E098A38F8F8F8D98A10197DA
:102E0000F1F798A38F8F89A19AA101979AA389A31B
:102E100089A19AA1009769F714C06BA17CA18DA12B
:102E20009EA10E944900DC01CB019AA389A389A13C
:102E30009AA19E8F8D8F8D8D9E8D0197F1F79E8F1C
:102E40008D8FFE01E257FF4F808160E00E9487185E
:102E5000FE01E257FF4F808160E10E94871880E009
:102E600090E0A0E4B0E4898F9A8FAB8FBC8F698D1E
:102E70007A8D8B8D9C8D20E030E04AEF54E40E94E7
:102E80001F02DC01CB018D8B9E8BAF8BB88F6D89C0
:102E90007E898F89988D20E030E040E85FE30E94D2
:102EA000790388232CF481E090E09C8B8B8B3FC0CE
:102EB0006D897E898F89988D20E03FEF4FE757E439
:102EC0000E94190318164CF5698D7A8D8B8D9C8D97
:102ED00020E030E040E251E40E941F02DC01CB011F
:102EE000BC01CD010E944900DC01CB019C8B8B8B86
:102EF0000FC088EC90E09A8B898B89899A89019719
:102F0000F1F79A8B898B8B899C8901979C8B8B8B92
:102F10008B899C89009769F714C06D897E898F8998
:102F2000988D0E944900DC01CB019C8B8B8B8B8997
:102F30009C89988B8F878F8598890197F1F7988B5B
:102F40008F87FE01E257FF4F808160E00E94871863
:102F5000FE01E257FF4F8081282F30E0C901880F22
:102F6000991F820F931F880F991F880F991FFC01CB
:102F7000E055FF4F8081881F8827881F882F90E0A9
:102F8000880F991F82959295907F9827807F982728
:102F9000482F4064FE01E257FF4F8081282F30E028
:102FA000C901880F991F820F931F880F991F880FDF
:102FB000991FFC01E055FF4F8081829586958770AF
:102FC0008170882F90E082959295907F9827807FDE
:102FD0009827842BFE01E357FF4F8083FE01E257C1
:102FE000FF4FDE01A357BF4F80816C910E9487186D
:102FF00080E090E0A0E4B0E48B879C87AD87BE873B
:103000006B857C858D859E8520E030E04AEF54E419
:103010000E941F02DC01CB018F839887A987BA87A2
:103020006F81788589859A8520E030E040E85FE30C
:103030000E94790388232CF481E090E09E838D83A5
:103040003FC06F81788589859A8520E03FEF4FE703
:1030500057E40E94190318164CF56B857C858D8505
:103060009E8520E030E040E251E40E941F02DC0136
:10307000CB01BC01CD010E944900DC01CB019E8344
:103080008D830FC088EC90E09C838B838B819C8127
:103090000197F1F79C838B838D819E8101979E839D
:1030A0008D838D819E81009769F714C06F8178852B
:1030B00089859A850E944900DC01CB019E838D831E
:1030C0008D819E819A83898389819A810197F1F705
:1030D0009A838983DE01A257BF4FFE01E257FF4F5B
:1030E00080818F5F8C93FE01E257FF4F8081823099
:1030F00010F40C945610C257DF4F0FB6F894DEBF91
:103100000FBECDBFCF91DF911F910F910895DF9337
:10311000CF9300D0CDB7DEB789836A838981282F0A
:1031200030E0C901880F991F820F931F880F991FE4
:10313000880F991FFC01EF54FF4F808160E00E94CF
:10314000440B89816A810E94AA180F900F90CF9139
:10315000DF910895DF93CF93CDB7DEB76F970FB6AA
:10316000F894DEBF0FBECDBF8E8F6F8F1D8E8E8DFC
:10317000282F30E0C901880F991F820F931F880FF5
:10318000991F0196880F991FFC01E055FF4F808120
:1031900060E00E94440B8E8D282F30E0C901880F1B
:1031A000991F820F931F880F991F880F991FFC0189
:1031B000ED54FF4F808161E00E94440B8E8D282FDB
:1031C00030E0C901880F991F820F931F880F991F44
:1031D000880F991FFC01E055FF4F8081817081307D
:1031E00089F51D8E2BC08E8D282F30E08D8D482FB8
:1031F00050E0C901880F991F820F931F880F991FF4
:10320000880F991F840F951FFC01EC54FF4F4081DC
:103210008F8D282F30E08D8D882F90E0B90102C06E
:10322000759567958A95E2F7CB01982F9170842F59
:10323000692F0E94440B8D8D8F5F8D8F8D8D88300F
:1032400090F231C084E08D8F2BC08E8D282F30E01E
:103250008D8D482F50E0C901880F991F820F931F51
:10326000880F991F880F991F840F951FFC01EC543C
:10327000FF4F40818F8D282F30E08D8D882F90E07B
:10328000B90102C0759567958A95E2F7CB01982F31
:103290009170842F692F0E94440B8D8D8F5F8D8FCD
:1032A0008D8D883090F280E090E0A0E2B1E4898FCB
:1032B0009A8FAB8FBC8F698D7A8D8B8D9C8D20E022
:1032C00030E04AEF54E40E941F02DC01CB018D8BF9
:1032D0009E8BAF8BB88F6D897E898F89988D20E00A
:1032E00030E040E85FE30E94790388232CF481E01A
:1032F00090E09C8B8B8B3FC06D897E898F89988DE8
:1033000020E03FEF4FE757E40E94190318164CF5F1
:10331000698D7A8D8B8D9C8D20E030E040E251E408
:103320000E941F02DC01CB01BC01CD010E944900BB
:10333000DC01CB019C8B8B8B0FC088EC90E09A8BCF
:10334000898B89899A890197F1F79A8B898B8B8967
:103350009C8901979C8B8B8B8B899C89009769F743
:1033600014C06D897E898F89988D0E944900DC0187
:10337000CB019C8B8B8B8B899C89988B8F878F85BE
:1033800098890197F1F7988B8F878E8D282F30E0E1
:10339000C901880F991F820F931F880F991F880FEB
:1033A000991FFC01ED54FF4F808160E00E94440BA7
:1033B00080E090E0A0E2B1E48B879C87AD87BE8778
:1033C0006B857C858D859E8520E030E04AEF54E456
:1033D0000E941F02DC01CB018F839887A987BA87DF
:1033E0006F81788589859A8520E030E040E85FE349
:1033F0000E94790388232CF481E090E09E838D83E2
:103400003FC06F81788589859A8520E03FEF4FE73F
:1034100057E40E94190318164CF56B857C858D8541
:103420009E8520E030E040E251E40E941F02DC0172
:10343000CB01BC01CD010E944900DC01CB019E8380
:103440008D830FC088EC90E09C838B838B819C8163
:103450000197F1F79C838B838D819E8101979E83D9
:103460008D838D819E81009769F714C06F81788567
:1034700089859A850E944900DC01CB019E838D835A
:103480008D819E819A83898389819A810197F1F741
:103490009A8389836F960FB6F894DEBF0FBECDBFB7
:1034A000CF91DF910895DF93CF93CDB7DEB7AC977F
:1034B0000FB6F894DEBF0FBECDBF8BA76CA78BA550
:1034C000282F30E0C901880F991F820F931F880FA2
:1034D000991F880F991FFC01EF54FF4F808161E015
:1034E0000E94440B8BA5282F30E0C901880F991F3B
:1034F000820F931F880F991F880F991FFC01E055B9
:10350000FF4F80818170813009F077C08BA56CA559
:103510000E94AA1880E090E0A0E8BFE38FA398A7DC
:10352000A9A7BAA76FA178A589A59AA520E030E040
:103530004AEF54E40E941F02DC01CB018BA39CA341
:10354000ADA3BEA36BA17CA18DA19EA120E030E024
:1035500040E85FE30E94790388232CF481E090E047
:103560009AA389A33FC06BA17CA18DA19EA120E05D
:103570003FEF4FE757E40E94190318164CF56FA16F
:1035800078A589A59AA520E030E040E251E40E94A8
:103590001F02DC01CB01BC01CD010E944900DC010E
:1035A000CB019AA389A30FC088EC90E098A38F8FDA
:1035B0008F8D98A10197F1F798A38F8F89A19AA178
:1035C00001979AA389A389A19AA1009769F705C1D8
:1035D0006BA17CA18DA19EA10E944900DC01CB01C1
:1035E0009AA389A389A19AA19E8F8D8F8D8D9E8D7F
:1035F0000197F1F79E8F8D8FF0C08BA56CA50E946F
:10360000AA1880E090E0A0E8BFE3898F9A8FAB8F83
:10361000BC8F698D7A8D8B8D9C8D20E030E04AEFD8
:1036200054E40E941F02DC01CB018D8B9E8BAF8B7B
:10363000B88F6D897E898F89988D20E030E040E8D1
:103640005FE30E94790388232CF481E090E09C8B57
:103650008B8B3FC06D897E898F89988D20E03FEFED
:103660004FE757E40E94190318164CF5698D7A8DBF
:103670008B8D9C8D20E030E040E251E40E941F02DF
:10368000DC01CB01BC01CD010E944900DC01CB0172
:103690009C8B8B8B0FC088EC90E09A8B898B8989EF
:1036A0009A890197F1F79A8B898B8B899C8901976D
:1036B0009C8B8B8B8B899C89009769F714C06D89D3
:1036C0007E898F89988D0E944900DC01CB019C8BFB
:1036D0008B8B8B899C89988B8F878F859889019795
:1036E000F1F7988B8F878CA5982F9295907F8BA55B
:1036F000692F0E94AA1880E090E0A0E8BFE38B87C2
:103700009C87AD87BE876B857C858D859E8520E0F7
:1037100030E04AEF54E40E941F02DC01CB018F83AA
:103720009887A987BA876F81788589859A8520E0EF
:1037300030E040E85FE30E94790388232CF481E0C5
:1037400090E09E838D833FC06F81788589859A85BF
:1037500020E03FEF4FE757E40E94190318164CF59D
:103760006B857C858D859E8520E030E040E251E4CC
:103770000E941F02DC01CB01BC01CD010E94490067
:10378000DC01CB019E838D830FC088EC90E09C838D
:103790008B838B819C810197F1F79C838B838D8137
:1037A0009E8101979E838D838D819E81009769F70D
:1037B00014C06F81788589859A850E944900DC0153
:1037C000CB019E838D838D819E819A83898389819C
:1037D0009A810197F1F79A838983AC960FB6F89492
:1037E000DEBF0FBECDBFCF91DF910895DF93CF93A2
:1037F000CDB7DEB7AC970FB6F894DEBF0FBECDBF26
:103800008BA76CA78BA5282F30E0C901880F991FC3
:10381000820F931F880F991F880F991FFC01E05595
:10382000FF4F80818170813009F077C08BA56CA536
:103830000E94871880E090E0A0E8BFE38FA398A7DC
:10384000A9A7BAA76FA178A589A59AA520E030E01D
:103850004AEF54E40E941F02DC01CB018BA39CA31E
:10386000ADA3BEA36BA17CA18DA19EA120E030E001
:1038700040E85FE30E94790388232CF481E090E024
:103880009AA389A33FC06BA17CA18DA19EA120E03A
:103890003FEF4FE757E40E94190318164CF56FA14C
:1038A00078A589A59AA520E030E040E251E40E9485
:1038B0001F02DC01CB01BC01CD010E944900DC01EB
:1038C000CB019AA389A30FC088EC90E098A38F8FB7
:1038D0008F8D98A10197F1F798A38F8F89A19AA155
:1038E00001979AA389A389A19AA1009769F705C1B5
:1038F0006BA17CA18DA19EA10E944900DC01CB019E
:103900009AA389A389A19AA19E8F8D8F8D8D9E8D5B
:103910000197F1F79E8F8D8FF0C08BA56CA50E944B
:10392000871880E090E0A0E8BFE3898F9A8FAB8F83
:10393000BC8F698D7A8D8B8D9C8D20E030E04AEFB5
:1039400054E40E941F02DC01CB018D8B9E8BAF8B58
:10395000B88F6D897E898F89988D20E030E040E8AE
:103960005FE30E94790388232CF481E090E09C8B34
:103970008B8B3FC06D897E898F89988D20E03FEFCA
:103980004FE757E40E94190318164CF5698D7A8D9C
:103990008B8D9C8D20E030E040E251E40E941F02BC
:1039A000DC01CB01BC01CD010E944900DC01CB014F
:1039B0009C8B8B8B0FC088EC90E09A8B898B8989CC
:1039C0009A890197F1F79A8B898B8B899C8901974A
:1039D0009C8B8B8B8B899C89009769F714C06D89B0
:1039E0007E898F89988D0E944900DC01CB019C8BD8
:1039F0008B8B8B899C89988B8F878F859889019772
:103A0000F1F7988B8F878CA5982F9295907F8BA537
:103A1000692F0E94871880E090E0A0E8BFE38B87C1
:103A20009C87AD87BE876B857C858D859E8520E0D4
:103A300030E04AEF54E40E941F02DC01CB018F8387
:103A40009887A987BA876F81788589859A8520E0CC
:103A500030E040E85FE30E94790388232CF481E0A2
:103A600090E09E838D833FC06F81788589859A859C
:103A700020E03FEF4FE757E40E94190318164CF57A
:103A80006B857C858D859E8520E030E040E251E4A9
:103A90000E941F02DC01CB01BC01CD010E94490044
:103AA000DC01CB019E838D830FC088EC90E09C836A
:103AB0008B838B819C810197F1F79C838B838D8114
:103AC0009E8101979E838D838D819E81009769F7EA
:103AD00014C06F81788589859A850E944900DC0130
:103AE000CB019E838D838D819E819A838983898179
:103AF0009A810197F1F79A838983AC960FB6F8946F
:103B0000DEBF0FBECDBFCF91DF910895DF93CF937E
:103B100000D000D0CDB7DEB78A837C836B83198257
:103B200010C08981282F30E08B819C81FC01E20F3D
:103B3000F31F90818A81692F0E94531A89818F5FB8
:103B400089838981282F30E08B819C81FC01E20FE1
:103B5000F31F8081882329F70F900F900F900F900B
:103B6000CF91DF910895DF93CF930F92CDB7DEB75A
:103B70008983898161E00E94F61B0F90CF91DF91CC
:103B800008950F931F93DF93CF93CDB7DEB762975E
:103B90000FB6F894DEBF0FBECDBF8E874F87588B10
:103BA000698B7A8B1B828AE0FE013496DF01982FA5
:103BB0001D929A95E9F78B81082F10E08F859889DF
:103BC000A989BA892AE030E040E050E0BC01CD018B
:103BD0000E948C23DC01CB01282FCE010496FC012E
:103BE000E00FF11F20838F859889A989BA892AE07F
:103BF00030E040E050E0BC01CD010E948C23DA01AE
:103C0000C9018F87988BA98BBA8B8B818F5F8B8330
:103C10008F859889A989BA890097A105B10559F6B8
:103C20008AE08B832AC08B8181508B838B81282FE4
:103C300030E0CE010496FC01E20FF31F808188235F
:103C4000E1F08B81882F90E09A83898312C08B8169
:103C5000282F30E0CE010496FC01E20FF31F808193
:103C6000982F905D8E85692F0E94531A8B81815009
:103C70008B838B81882359F703C08B81882399F626
:103C80008C81982F905D8E85692F0E94531A6296C1
:103C90000FB6F894DEBF0FBECDBFCF91DF911F915D
:103CA0000F910895DF93CF9300D00F92CDB7DEB779
:103CB00089837B836A830F900F900F90CF91DF9160
:103CC0000895DF93CF9300D000D0CDB7DEB78A83BD
:103CD0006B834C8319828A81282F30E0C901880FB9
:103CE000991F820F931F880F991F880F991FFC013E
:103CF000EF54FF4F808160E00E94440B8B81813044
:103D000041F48C81815889838A8169810E94F61BE4
:103D10000AC08B81823039F48C81815489838A81F5
:103D200069810E94F61B0F900F900F900F90CF911A
:103D3000DF910895DF93CF93CDB7DEB78CE161E0DB
:103D40000E94440B8DE161E00E94440B8EE161E032
:103D50000E94440B8FE161E00E94440B88E161E026
:103D60000E94370D89E161E00E94370D8AE161E030
:103D70000E94370D8BE161E00E94370DCF91DF91FA
:103D80000895DF93CF9300D0CDB7DEB78FEF89834F
:103D90001092EE006DC08091EE00882F90E0FC0143
:103DA000E452FF4F808160E00E94440B1092ED00CE
:103DB0004AC08091ED00882F90E0FC01E852FF4F4F
:103DC00080812CEE30E0B9010E94720C8091EC00F1
:103DD0008823A1F58091ED00482F50E08091EE00FE
:103DE000282F30E0CA01880F991F880F991F820F72
:103DF000931FFC01E853FF4F808189830DC08091A0
:103E0000ED00882F90E0FC01E852FF4F80812CEEFE
:103E100030E0B9010E94720C8091EC00882379F3A4
:103E20008091EE00882F90E0FC01E452FF4F8081EA
:103E300061E00E94440B89818A8321C08091ED005A
:103E40008F5F8093ED008091ED00843008F4B1CF56
:103E50008091EE00882F90E0FC01E452FF4F8081BA
:103E600061E00E94440B8091EE008F5F8093EE0032
:103E70008091EE00843008F48ECF89818A838A8114
:103E80000F900F90CF91DF910895DF93CF93CDB72F
:103E9000DEB780E160E00E94440B81E161E00E94B6
:103EA000440BCF91DF910895DF93CF93CDB7DEB769
:103EB00080E161E00E94440B81E160E00E94440BDC
:103EC000CF91DF910895DF93CF93CDB7DEB780E137
:103ED00060E00E94440B81E160E00E94440BCF91BE
:103EE000DF910895DF93CF93CDB7DEB7AB970FB6D1
:103EF000F894DEBF0FBECDBF89E0FE01B396DF01AF
:103F0000982F1D929A95E9F78FEF8AA381E089A3F4
:103F100018A21F8E0E942D0B0E943F100E949A1E15
:103F200080E00E94B31D20E630E080E0B9010E94ED
:103F3000861D80E062E041E00E94611E29E630E0DB
:103F400080E0B9010E94861D80E061E041E00E94AE
:103F5000611E0E94C11E8AA38AA18F3F09F4FAC183
:103F60008AA18D3309F4F6C18AA1863361F489A14F
:103F7000883049F089A18F5F89A380E061E049A181
:103F80000E94611EE7C18AA1843361F489A1813056
:103F900049F089A1815089A380E061E049A10E9494
:103FA000611ED8C18AA1883309F0E2C089A183309B
:103FB00009F4DEC089A1863009F4DAC089A1282F6E
:103FC00030E0CE018396FC01E20FF31F808189303F
:103FD00008F0ADC089A1282F30E0CE018396FC0106
:103FE000E20FF31F8081853061F089A1282F30E036
:103FF000CE018396FC01E20FF31F8081863009F029
:104000006DC089A1813039F089A1843021F089A166
:10401000873009F063C089A1282F30E0CE01839654
:10402000FC01E20FF31F80818530B9F589A1882F4B
:1040300090E09C012F5F3F4FCE018396FC01E20F81
:10404000F31F8081882349F589A1282F30E0CE0114
:104050008396FC01E20FF31F8081482F4F5FCE0152
:104060008396FC01E20FF31F408389A1282F30E0E3
:10407000CE018396FC01E20FF31F8081282F30E0F0
:1040800040E050E080E0BA01A9010E94C11D80E03B
:1040900061E049A10E94611E5DC189A1282F30E025
:1040A000CE018396FC01E20FF31F108289A1282F15
:1040B00030E0CE018396FC01E20FF31F8081282FB0
:1040C00030E040E050E080E0BA01A9010E94C11D4B
:1040D00080E061E049A10E94611E3CC189A1282FB6
:1040E00030E0CE018396FC01E20FF31F8081482F60
:1040F0004F5FCE018396FC01E20FF31F408389A13D
:10410000282F30E0CE018396FC01E20FF31F80815F
:10411000282F30E040E050E080E0BA01A9010E9481
:10412000C11D80E061E049A10E94611E13C189A107
:10413000282F30E0CE018396FC01E20FF31F10829E
:1041400089A1282F30E0CE018396FC01E20FF31FF6
:104150008081282F30E040E050E080E0BA01A901E2
:104160000E94C11D80E061E049A10E94611EF2C071
:104170008AA1823309F0BBC089A1833009F4B7C09A
:1041800089A1863009F4B3C089A1282F30E0CE017F
:104190008396FC01E20FF31F8081882309F07EC023
:1041A00089A1813039F089A1843021F089A187303B
:1041B00009F052C089A1882F90E09C012F5F3F4FEA
:1041C000CE018396FC01E20FF31F8081882311F555
:1041D00089A1282F30E0CE018396FC01E20FF31F66
:1041E00086E0808389A1282F30E0CE018396FC01F0
:1041F000E20FF31F8081282F30E040E050E080E0A4
:10420000BA01A9010E94C11D80E061E049A10E949C
:10421000611EA0C089A1282F30E0CE018396FC0149
:10422000E20FF31F85E0808389A1282F30E0CE01C3
:104230008396FC01E20FF31F8081282F30E040E0DD
:1042400050E080E0BA01A9010E94C11D80E061E058
:1042500049A10E94611E7EC089A1282F30E0CE01B5
:104260008396FC01E20FF31F89E0808389A1282F48
:1042700030E0CE018396FC01E20FF31F8081282FEE
:1042800030E040E050E080E0BA01A9010E94C11D89
:1042900080E061E049A10E94611E5CC089A1282FD5
:1042A00030E0CE018396FC01E20FF31F8081482F9E
:1042B0004150CE018396FC01E20FF31F408389A198
:1042C000282F30E0CE018396FC01E20FF31F80819E
:1042D000282F30E040E050E080E0BA01A9010E94C0
:1042E000C11D80E061E049A10E94611E33C08AA126
:1042F000833681F580E00E94B31D20E630E080E047
:10430000B9010E94861D80E062E041E00E94611ECA
:1043100029E630E080E0B9010E94861D80E061E07E
:1043200041E00E94611E81E089A31E8E1D8E0DC09A
:104330002D8D3E8DCE018396FC01E20FF31F10827E
:104340008D8D9E8D01969E8F8D8F8D8D9E8D88304B
:10435000910574F38AA18D3309F0FBCD80E062E012
:1043600041E00E94611E27E730E080E0B9010E9431
:10437000861DAEC18F8D882309F00CC180E061E0FD
:1043800048E00E94611E8BA5282F30E040E050E0FD
:1043900080E0BA01A9010E94C11D80E090E0AAE777
:1043A000B4E4898F9A8FAB8FBC8F698D7A8D8B8D9A
:1043B0009C8D20E030E04AEF54E40E941F02DC01B3
:1043C000CB018D8B9E8BAF8BB88F6D897E898F894A
:1043D000988D20E030E040E85FE30E947903882375
:1043E0002CF481E090E09C8B8B8B3FC06D897E89A3
:1043F0008F89988D20E03FEF4FE757E40E94190323
:1044000018164CF5698D7A8D8B8D9C8D20E030E0EF
:1044100040E251E40E941F02DC01CB01BC01CD014E
:104420000E944900DC01CB019C8B8B8B0FC088EC78
:1044300090E09A8B898B89899A890197F1F79A8BF9
:10444000898B8B899C8901979C8B8B8B8B899C8911
:10445000009769F714C06D897E898F89988D0E94B5
:104460004900DC01CB019C8B8B8B8B899C89988BC1
:104470008F878F8598890197F1F7988B8F878BA508
:1044800081508BA78BA5882309F078CF80E061E06D
:1044900048E00E94611E8BA5282F30E040E050E0EC
:1044A00080E0BA01A9010E94C11D80E090E0AAE766
:1044B000B4E48B879C87AD87BE876B857C858D85B3
:1044C0009E8520E030E04AEF54E40E941F02DC01A8
:1044D000CB018F839887A987BA876F817885898573
:1044E0009A8520E030E040E85FE30E94790388236A
:1044F0002CF481E090E09E838D833FC06F817885AE
:1045000089859A8520E03FEF4FE757E40E94190321
:1045100018164CF56B857C858D859E8520E030E0F6
:1045200040E251E40E941F02DC01CB01BC01CD013D
:104530000E944900DC01CB019E838D830FC088EC73
:1045400090E09C838B838B819C810197F1F79C8306
:104550008B838D819E8101979E838D838D819E812A
:10456000009769F714C06F81788589859A850E94C4
:104570004900DC01CB019E838D838D819E819A83CE
:10458000898389819A810197F1F79A83898381E0F0
:104590008F8F9EC08F8D8130E1F48AA58823B1F082
:1045A0008AA581508AA780E061E047E00E94611EF1
:1045B0008AA5282F30E040E050E080E0BA01A90150
:1045C0000E94C11D89E08BA71F8E82C082E08F8F61
:1045D0007FC08F8D8230E9F488A58823B9F088A543
:1045E000815088A780E061E045E00E94611E88A5B7
:1045F000282F30E040E050E080E0BA01A9010E949D
:10460000C11D86E08AA781E08F8F62C083E08F8F13
:104610005FC08F8D8330E9F48FA18823B9F08FA11B
:1046200081508FA380E061E044E00E94611E8FA171
:10463000282F30E040E050E080E0BA01A9010E945C
:10464000C11D8AE088A782E08F8F42C084E08F8FEF
:104650003FC08F8D8430E9F48DA18823B9F08DA1FE
:1046600081508DA380E061E042E00E94611E8DA137
:10467000282F30E040E050E080E0BA01A9010E941C
:10468000C11D86E08FA383E08F8F22C085E08F8FCE
:104690001FC08F8D8530E1F48CA18823B9F08CA1E7
:1046A00081508CA380E061E041E00E94611E8CA1FA
:1046B000282F30E040E050E080E0BA01A9010E94DC
:1046C000C11D8AE08DA384E08F8F02C086E08F8FAA
:1046D0008BA5882309F04ECE8AA5882309F04ACEFF
:1046E00088A5882309F046CE8FA1882309F042CE01
:1046F0008DA1882309F03ECE8CA1882309F03ACE03
:1047000080E062E041E00E94611E28E830E080E045
:10471000B9010E94861D1DCCA1E21A2EAA1BBB1B4B
:10472000FD010DC0AA1FBB1FEE1FFF1FA217B3077D
:10473000E407F50720F0A21BB30BE40BF50B661F93
:10474000771F881F991F1A9469F760957095809557
:1047500090959B01AC01BD01CF0108952F923F922E
:104760004F925F926F927F928F929F92AF92BF9281
:10477000CF92DF92EF92FF920F931F93CF93DF932D
:10478000CDB7DEB7CA1BDB0B0FB6F894DEBF0FBE8A
:10479000CDBF09942A88398848885F846E847D84D7
:1047A0008C849B84AA84B984C884DF80EE80FD80D9
:1047B0000C811B81AA81B981CE0FD11D0FB6F8944F
:0E47C000DEBF0FBECDBFED010895F894FFCF10
:1047CE0030303A30303A30300053657420796F759E
:1047DE00722074696D65002020202020202020206A
:1047EE002020202020202000497427732074686523
:1047FE002054696D650000000000000000000001FB
:10480E000203040506071408090A0B0C0D0E0F14FB
:10481E00CA000102000000000C0D0E0FCA000000BD
:10482E0000000000000000003738392F3435362ADA
:10483E003132332D63303D2B18191A1B1C1D1E1FD0
:0A484E003F065B4F666D7D077F6F2C
:00000001FF
