:100000000C942A000C9472020C9447000C94470044
:100010000C9447000C9447000C945F010C94110160
:100020000C9438010C94EA000C9413020C94EC012B
:100030000C9447000C9447000C9447000C94470024
:100040000C94CA030C9447000C9447000C9447008E
:100050000C94470011241FBECFE5D8E0DEBFCDBF12
:1000600010E0A0E6B0E0EEECF3E102C005900D92E6
:10007000A23EB107D9F710E0A2EEB0E001C01D9298
:10008000A73FB107E1F70E94E0070C94E5090C9443
:10009000000081B5886081BD089581B5886181BD0A
:1000A00011BC089591B5987F91BD91B5982B91BDE4
:1000B00008958FB58E7F8FBD8FB582608FBD8EB551
:1000C00088608EBD8EB580618EBD8FB58F7B8FBDF4
:1000D0008FB580688FBD8FB58F7E8FBD8FB58062E5
:1000E0008FBD8EB5887F8EBD89B78B7F89BF89B75D
:1000F000877F89BF89B78F7E89BF89B78F7D89BF89
:1001000088B7846088BF88B7886088BF88B78061F7
:1001100088BF88B7806288BF1ABC1BBC18BC19BCDA
:100120001CBC1DBC16BC17BC08959EB5987F9EBD17
:100130009EB58770892B8EBD08958EB5887F8EBD44
:10014000089589B7846089BF089589B78B7F89BF77
:10015000089589B7806189BF089589B78F7E89BF67
:10016000089589B7886089BF089589B7877F89BF57
:10017000089589B7806289BF089589B78F7D89BF47
:1001800008959093EC008093EB0008959093EE0017
:100190008093ED0008959093E8008093E700089520
:1001A0009093EA008093E90008958CBD9DBD089569
:1001B0008ABD9BBD089588BD99BD089597BD86BD34
:1001C00008952DB5922F80E02CB530E0282B392BE7
:1001D000C90108951F920F920FB60F9211242F9309
:1001E0003F934F935F936F937F938F939F93AF93BF
:1001F000BF93EF93FF93E091EB00F091EC00099532
:10020000FF91EF91BF91AF919F918F917F916F91EE
:100210005F914F913F912F910F900FBE0F901F90C4
:1002200018951F920F920FB60F9211242F933F93A0
:100230004F935F936F937F938F939F93AF93BF93EE
:10024000EF93FF93E091ED00F091EE000995FF919F
:10025000EF91BF91AF919F918F917F916F915F913E
:100260004F913F912F910F900FBE0F901F901895B7
:100270001F920F920FB60F9211242F933F934F931B
:100280005F936F937F938F939F93AF93BF93EF93FE
:10029000FF93E091E700F091E8000995FF91EF915D
:1002A000BF91AF919F918F917F916F915F914F918E
:1002B0003F912F910F900FBE0F901F9018951F9296
:1002C0000F920FB60F9211242F933F934F935F938A
:1002D0006F937F938F939F93AF93BF93EF93FF930E
:1002E000E091E900F091EA000995FF91EF91BF914B
:1002F000AF919F918F917F916F915F914F913F91BE
:100300002F910F900FBE0F901F90189526B537B5FF
:10031000C90108958EB580648EBD08958EB58F7B1A
:100320008EBD089583B7806483BF83B7886083BF21
:1003300083B78F7E83BF83B7806283BF089593B7EF
:10034000987F93BF93B78770892B83BF089583B736
:10035000887F83BF089589B7816089BF089589B771
:100360008E7F89BF089589B7826089BF089589B754
:100370008D7F89BF08959093F0008093EF000895DA
:100380009093F2008093F100089582BF08958CBF8E
:10039000089582B708958CB70895813031F483B7FA
:1003A0008F7B83BF83B7877F0CC0823019F483B7FC
:1003B0008F7B04C0833039F483B7806483BF83B7F5
:1003C000886083BF0895843031F483B7806483BF2D
:1003D00083B7877F83BF08951F920F920FB60F9246
:1003E00011242F933F934F935F936F937F938F933A
:1003F0009F93AF93BF93EF93FF93E091EF00F09142
:10040000F0000995FF91EF91BF91AF919F918F916E
:100410007F916F915F914F913F912F910F900FBE00
:100420000F901F9018951F920F920FB60F921124E4
:100430002F933F934F935F936F937F938F939F93EC
:10044000AF93BF93EF93FF93E091F100F091F2002F
:100450000995FF91EF91BF91AF919F918F917F91FE
:100460006F915F914F913F912F910F900FBE0F9021
:100470001F9018958FB780688FBF08958FB78F77BB
:100480008FBF08958BB780648BBF08958BB78F7B28
:100490008BBF089585B78E7F85BF85B7826085BF86
:1004A0000895813051F0813028F0823079F0833026
:1004B00069F409C085B78E7F02C085B7816085BFAA
:1004C00085B78D7F08C085B7816002C085B78E7FF4
:1004D00085BF85B7826085BF08959093F4008093AF
:1004E000F30008951F920F920FB60F9211242F93CD
:1004F0003F934F935F936F937F938F939F93AF93AC
:10050000BF93EF93FF93E091F300F091F40009950E
:10051000FF91EF91BF91AF919F918F917F916F91DB
:100520005F914F913F912F910F900FBE0F901F90B1
:1005300018958FEF8ABB87BB84BB80EF81BB089582
:10054000382F8830E0F4662371F0613009F07CC008
:100550002BB381E090E002C0880F991F3A95E2F733
:10056000282B2BBB6FC02BB381E090E002C0880F1B
:10057000991F3A95E2F7809582238BBB63C0885020
:100580008830F0F4662379F0613009F05DC028B35B
:10059000377081E090E002C0880F991F3A95E2F72A
:1005A000282B28BB4FC028B3377081E090E002C0F1
:1005B000880F991F3A95E2F78095822388BB42C045
:1005C000832F80518830F0F4662379F0613009F090
:1005D0003BC025B3377081E090E002C0880F991FBF
:1005E0003A95E2F7282B25BB2DC025B3377081E063
:1005F00090E002C0880F991F3A95E2F78095822318
:1006000085BB20C0832F88518830F0F4662371F0B9
:100610006130D1F422B3377081E090E002C0880FDE
:10062000991F3A95E2F7282B22BB0CC022B33770F2
:1006300081E090E002C0880F991F3A95E2F780951B
:10064000822382BB80E0089582E00895282FFB0179
:100650006115710511F483E00895883018F489B3A9
:1006600090E006C08850883060F486B390E0277030
:1006700002C0959587952A95E2F78170808380E086
:100680000895822F8051883010F483B3EFCF822FEA
:100690008851883010F082E0089580B390E0277090
:1006A00002C0959587952A95E2F78170808380E056
:1006B0000895DF92EF92FF920F931F93CF93DF93F2
:1006C0007B01D42E8C01C0E0D0E00CC0F701EC0F10
:1006D000FD1FD8018D918D0160810E94A00221969D
:1006E000882319F4CD1590F380E0DF91CF911F910D
:1006F0000F91FF90EF90DF9008950E94A00208955F
:100700003D983E9A3F9886B1887F86B986B18560CC
:1007100086B935980895379A089537980895339A89
:100720000895339808959093E3008093E20008952C
:1007300097B1907E97B997B1982B97B9369A08954B
:10074000982F893058F4359A80B78F7180BF80B761
:100750009295990F907E892B80BF0895893009F476
:100760003598089597B1907E97B997B1982B97B91E
:10077000369A349BFECF349A24B130E045B1942FA1
:1007800080E0282B392BC90108958091F5009091C4
:10079000F60008951F920F920FB60F9211242F9317
:1007A0003F934F935F936F937F938F939F93AF93F9
:1007B000BF93EF93FF93E091E200F091E300309755
:1007C00009F0099584B145B1342F20E090E0282B41
:1007D000392B3093F6002093F500FF91EF91BF91F4
:1007E000AF919F918F917F916F915F914F913F91C9
:1007F0002F910F900FBE0F901F901895823010F020
:1008000082E0089590E0FC0123E0EE0FFF1F2A959F
:10081000E1F7E80FF91FEA56FF4F8085843131F484
:10082000878161E00E94A00280E008958A3011F083
:1008300081E00895878160E00E94A00280E0089531
:10084000823010F082E0089590E0FC0133E0EE0F7A
:10085000FF1F3A95E1F7E80FF91FEA56FF4F808531
:10086000843131F4878160E00E94A00280E0089525
:100870008A3011F081E00895878161E00E94A00232
:1008800080E00895DF93CF93CDB7DEB761970FB6C1
:10089000F894DEBF0FBECDBFFE013896A0ECB0E0ED
:1008A0002AE00D9001922150E1F76A3010F082E0C9
:1008B0005BC0482F50E0FA01A3E0EE0FFF1FAA959E
:1008C000E1F7E40FF51FEA56FF4F80858431E9F424
:1008D000FE01E60FF11D808520E030E0BE016F5F74
:1008E0007F4FA82FB0E0FB01E20FF31FCD01022ED6
:1008F00002C0959587950A94E2F7817080832F5FF7
:100900003F4F2730310579F721C08A3011F081E05F
:100910002BC0FE01E60FF11D8085809520E030E0C0
:10092000BE016F5F7F4FA82FB0E0FB01E20FF31F06
:10093000CD01022E02C0959587950A94E2F7817049
:1009400080832F5F3F4F2730310579F7CA01E3E0FD
:10095000880F991FEA95E1F7840F951F8A569F4FDC
:1009600047E00E94590380E061960FB6F894DEBF1D
:100970000FBECDBFCF91DF9108950895CF92DF9242
:10098000EF92FF920F931F93CF93DF93F62EC82E13
:10099000DD248601000F111F0C0D1D1DF801EE0F47
:1009A000FF1FEE0FFF1FE655FF4F808160E00E94A2
:1009B000A002E801CC0FDD1FCC0FDD1FC855DF4FB3
:1009C0008B8161E00E94A002888180FF1CC0000F23
:1009D000111F000F111F04551F4FC0E0D0E0EF2C76
:1009E000FF24B7010C2E02C0759567950A94E2F7B3
:1009F0006170F80181918F010E94A0022196C83098
:100A0000D10579F721C00F2D10E054E01595079519
:100A10005A95E1F7602F617088850E94A0021595B4
:100A20000795602F617089850E94A0021595079532
:100A3000602F61708A850E94A0021595079501704C
:100A40008B85602F0E94A00200E21EE4C80101977E
:100A5000F1F7F601EE0FFF1FEC0DFD1DEE0FFF1F6E
:100A6000EE0FFF1FE855FF4F838160E00E94A00258
:100A7000C8010197F1F7DF91CF911F910F91FF907E
:100A8000EF90DF90CF9008950F931F93182F062FAC
:100A900090E0FC01EE0FFF1FE80FF91FEE0FFF1FA4
:100AA000EE0FFF1FE855FF4F818160E00E94A0021A
:100AB000812F602F0E94BE041F910F910895EF9225
:100AC000FF920F931F93E82EF62E90E0FC01EE0F9D
:100AD000FF1FE80FF91FEE0FFF1FEE0FFF1FE85576
:100AE000FF4F808180FF06C08E2D0E94440580ED5F
:100AF00097E010C08E2D0E94440500ED17E0C8015C
:100B00000197F1F7F29430EFF3228E2D6F2D0E94B2
:100B10004405C8010197F1F71F910F91FF90EF90E5
:100B2000089561E00E945F050895AF92BF92CF9251
:100B3000DF92EF92FF920F931F93CF93DF93C0E06A
:100B4000D0E0A0E6AA2EAAEEBA2EF0EDCF2EF7E066
:100B5000DF2EE0E7EE2EE7E1FE2E8E01000F111FE3
:100B60000C0F1D1F000F111F000F111F08551F4FE5
:100B7000F801208120FF38C0C5010197F1F7622FED
:100B8000660F660F68702470622B60638C2F0E9462
:100B90004405C6010197F1F7F8016081862F82951F
:100BA00081708860962F92959470982B66956695C3
:100BB0006270692B8C2F0E944405C6010197F1F7E2
:100BC0008C2F61E00E944405C7010197F1F7F801FD
:100BD0006081629566956770862F817084606695E6
:100BE0006695660F682B4DC0C5010197F1F78C2FF4
:100BF00060E20E9444058C2F60E20E944405F801E7
:100C00006081862F829580746695679566276795C3
:100C1000682B8C2F0E944405C6010197F1F78C2F99
:100C200060E00E944405F8016081962F9074862F41
:100C3000880F880F8072892B80686071682B8C2FD9
:100C40000E944405C6010197F1F78C2F60E00E94D5
:100C500044058C2F60E10E944405C7010197F1F71C
:100C60008C2F60E00E944405F8016081862F881F68
:100C70008827881F8295880F807E66956071682B13
:100C800060648C2F0E944405C7010197F1F72196FB
:100C9000C230D10509F061CFDF91CF911F910F9143
:100CA000FF90EF90DF90CF90BF90AF900895FF92AC
:100CB0000F931F93082FF62E142F90E0FC01EE0FD8
:100CC000FF1FE80FF91FEE0FFF1FEE0FFF1FE85584
:100CD000FF4F818160E00E94A00281E0F81611F4CC
:100CE000115804C082E0F81629F41154802F612FA6
:100CF0000E945F051F910F91FF900895EF92FF9260
:100D00000F931F93E82EF62E90E08C01000F111F19
:100D1000080F191F000F111F000F111F08551F4F3B
:100D2000F801818161E00E94A002F801808180FFCA
:100D300007C08E2D6F2D0E94BE0480ED97E011C07C
:100D40008E2D6F2D0E94BE0400ED17E0C8010197A3
:100D5000F1F7F29430EFF3228E2D6F2D0E94BE0436
:100D6000C8010197F1F71F910F91FF90EF9008953F
:100D70008F929F92AF92BF92CF92DF92EF92FF92AB
:100D80000F931F93DF93CF93CDB7DEB72A970FB69C
:100D9000F894DEBF0FBECDBFA82E6A017B01FE0115
:100DA00031968AE0DF011D928A95E9F7BB244F0155
:100DB00084010B0D111DC701B6012AE030E040E0AF
:100DC00050E00E94C309F8016083C701B6012AE020
:100DD00030E040E050E00E94C309C901DA016C0133
:100DE0007D01B394C114D104E104F10409F70AE0D0
:100DF0009E012F5F3F4F0150F901E00FF11D8081EF
:100E0000882391F00AC0F701E00FF11D6081605D59
:100E10008A2D0E947E06015004C07E010894E11CC8
:100E2000F11C002381F702C0002329F76981605D6E
:100E30008A2D0E947E062A960FB6F894DEBF0FBE5A
:100E4000CDBFCF91DF911F910F91FF90EF90DF9079
:100E5000CF90BF90AF909F908F9008950F931F9366
:100E6000CF93DF93082FEB0110E004C0802F0E9486
:100E70007E061F5FFE01E10FF11D60816623B1F761
:100E8000DF91CF911F910F9108951F931092E6006B
:100E900052C0F0E0E252FF4F808160E00E94A00269
:100EA0001092E50036C0F0E0E652FF4F808164EE1C
:100EB00070E00E9426038091E400E091E500882321
:100EC00029F58091E600F0E0EE0FFF1FEE0FFF1F07
:100ED000E80FF11DE653FF4F10810AC0E091E500D5
:100EE000F0E0E652FF4F808164EE70E00E9426033E
:100EF0008091E400882391F3E091E600F0E0E25273
:100F0000FF4F808161E00E94A0021BC0EF5FE09371
:100F1000E500E091E500E43030F2E091E600F0E039
:100F2000E252FF4F808161E00E94A0028091E600C2
:100F30008F5F8093E600E091E600E43008F4A9CFEB
:100F40001FEF812F1F9108958CE161E00E94A002A4
:100F50008DE161E00E94A0028EE161E00E94A002AA
:100F60008FE161E00E94A00288E161E00E947D03C0
:100F700089E161E00E947D038AE161E00E947D03D6
:100F80008BE161E00E947D03089580E160E00E94B2
:100F9000A00281E160E00E94A002089580E161E08A
:100FA0000E94A00281E160E00E94A002089580E119
:100FB00060E00E94A00281E161E00E94A002089529
:100FC0003F924F925F926F927F928F929F92AF92D9
:100FD000BF92CF92DF92EF92FF920F931F93DF9316
:100FE000CF93CDB7DEB729970FB6F894DEBF0FBE0B
:100FF000CDBFFE01319689E0DF011D928A95E9F7A8
:101000000E9499020E9495050E94A40780E00E9418
:10101000910580E060E670E00E942E0780E062E0CB
:1010200041E00E94570680E069E670E00E942E07CA
:1010300080E061E041E00E945706DD24D39410E097
:1010400078ECA72EB12C66E0C62E55E0552E49E06F
:10105000442E3AE0732E26E0622E99E0392E89E084
:10106000882E912C8C0E9D1E0E9445078F3FE1F328
:101070008D3309F47DC1863329F4B8E0DB16A1F382
:10108000D39486C0843329F481E0D81669F3DA94C6
:101090007FC08833C1F5A3E0DA1631F3B6E0DB1682
:1010A00019F3AD2DB0E0FE013196EA0FFB1F408130
:1010B000493010F5842F85508230C0F481E0D81675
:1010C00031F084E0D81619F087E0D81679F445306D
:1010D00041F4FE01EA0FFB1F8281882311F4C182D3
:1010E0003AC0AC0FBD1F11961C9207C04F5FAC0FEA
:1010F000BD1F11964C9346C0108280E040E050E046
:1011000060E070E043C0823309F048C0A3E0DA1623
:1011100009F4AACFB6E0DB1609F4A6CF2D2D30E0F6
:10112000FE013196E20FF31F4081442349F581E02F
:10113000D81631F0A4E0DA1619F0B7E0DB16C9F4DE
:10114000FE01E20FF31F8281FE013196882341F4F4
:10115000E20FF31FC08246E050E060E070E016C08E
:10116000E20FF31F508280E045E050E060E070E065
:101170000DC0408280E049E050E060E070E006C0D1
:101180004150408350E060E070E080E00E94B8068B
:1011900080E061E04D2D0E94570666CF833609F04E
:1011A00063CF80E00E94910580E060E670E00E94DD
:1011B0002E0780E062E041E00E94570680E069E689
:1011C00070E00E942E0780E061E041E00E94570637
:1011D000FE0131961192E815F905E1F7DD24D3946B
:1011E00043CF112351F580E061E048E00E945706AB
:1011F0004E2D50E060E070E080E00E94B80680E193
:1012000097E2F5013197F1F70197D9F7EA9459F789
:10121000198680E061E048E00E94570680E040E0E7
:1012200050E060E070E00E94B80680E197E2F501CE
:101230003197F1F70197D9F72EC01130B1F4E88456
:10124000EE2009F440C0EA94E88680E061E047E0DF
:101250000E945706FF2400E010E080E0B801A701DB
:101260000E94B806398610E061C01230B1F4EE80F9
:10127000EE2009F441C0EA94EE8280E061E045E0AE
:101280000E945706FF2400E010E080E0B801A701AB
:101290000E94B806688611E049C01330B1F4ED80B1
:1012A000EE2009F442C0EA94ED8280E061E044E07F
:1012B0000E945706FF2400E010E080E0B801A7017B
:1012C0000E94B8067E8212E031C01430B9F4EB807F
:1012D000EE2011F415E02AC0EA94EB8280E061E090
:1012E00042E00E945706FF2400E010E080E0B801D1
:1012F000A7010E94B8066D8213E018C01530B1F442
:10130000EA80EE2011F416E011C0EA94EA8280E04F
:1013100061E041E00E945706FF2400E010E080E019
:10132000B801A7010E94B8067B8214E0E984EE2090
:1013300009F057CF8885882309F053CF8E81882301
:1013400009F04FCF8D81882309F04BCF8B81882303
:1013500009F047CF8A81882309F043CF62E041E05A
:101360000E94570680E067E770E00E942E077CCE5F
:1013700080E062E041E00E94570680E065E870E0AE
:101380000E942E07D3CFA1E21A2EAA1BBB1BFD0180
:101390000DC0AA1FBB1FEE1FFF1FA217B307E40754
:1013A000F50720F0A21BB30BE40BF50B661F771FAC
:1013B000881F991F1A9469F760957095809590958C
:0E13C0009B01AC01BD01CF010895F894FFCF51
:1013CE0030303A30303A30300053657420796F75D2
:1013DE00722074696D6500497427732074686520E6
:1013EE0054696D6500202020202020202020202000
:1013FE002020202020000001020304050607140807
:10140E00090A0B0C0D0E0F14CA0001020000000099
:10141E000C0D0E0FCA0000000000000000000000BE
:10142E003F065B4F666D7D077F6F3738392F34353A
:10143E00362A3132332D63303D2B18191A1B1C1DE1
:02144E001E1F5F
:00000001FF
